:0400000080313428EF
:100008007E14803140017F08F1004E018C12FC30D3
:100018004B019D003F309C0001304001A00700309B
:10002800A13D0030A23D0030A33D2308031D242834
:10003800203020024830213B0130223B031C30286D
:100048000830F00070089B060030A3000030A200C2
:100058000030A1000030A0007108FF007E100900E8
:100068008031362881316021B400FB01A001A10153
:10007800A201A301A401A501A601A701A801A90144
:10008800AA01AB017E10400180319628F800F901E1
:100098007308031908007808031D78287D28740858
:1000A800031D612879087807F5007508860087011F
:1000B8000108813157218031742879087807F500C3
:1000C8007508860087010108813157218031F600C3
:1000D80079087407F7007708860087017608810099
:1000E8000130F5007508F90773087902031808004C
:1000F80053287408031908007308790203180800C4
:10010800FF30813157218031F50079087407F600F6
:10011800760886008701750881000130F5007508AA
:10012800F907802851010E168E120E130E108E102C
:100138000E118E1113109314131511178031D82036
:10014800803140013408B0003008B3004001AC01F0
:10015800AC0AA530B0003008AD0033308131102131
:10016800803103304001B1000830B0007730890B8E
:10017800BB28B00BBB28B10BBB28FA01FA0A3330F5
:1001880081313C2180314001B0003008B200033099
:100198004001B1000830B0007730890BD128B00B8E
:1001A800D128B10BD128AA28400114109414141195
:1001B80094117E014E10CE104E11CE11D014003085
:1001C8008B1B0130F2008B1355307D018F00AA3054
:1001D8008F000F104508C0391238C50015307E0150
:1001E800A2007D014608C0391138C60016307E01CC
:1001F800A30055307D018F00AA308F000F14721CA8
:1002080007298B1708298B13403043018F003A3098
:10021800900013308D000800FA0040011A100630D3
:1002280081315721813140011A1403304001AF0058
:100238000830AE007730890B1F29AE0B1F29AF0B92
:100248001F2940011A1002308131572181314001A4
:100258002C08AE002E08F300F4017A0880314A20F9
:10026800813140012D088131572140011A140800BD
:100278004001AD001A1003308131572181317A08CD
:100288004001AC002C08F300F4012D0880314A200D
:100298008131FF30813157214001AC002C08AE007C
:1002A8001A142E080800F2004301901372088C00FB
:0A02B8000F1C5C290C080800AB3491
:020000040001F9
:0A000E009C1FFF3F9F3FFF3FFF3F95
:00000001FF
